:020000020000FC
:020000005DC1E0
:0200040018954D
:02000800189549
:02000C00189545
:02001000189541
:0200140018953D
:02001800189539
:02001C00189535
:02002000189531
:0200240018952D
:02002800189529
:02002C00189525
:02003000189521
:0200340018951D
:02003800189519
:02003C00189515
:02004000189511
:0200440018950D
:02004800189509
:02004C00189505
:02005000189501
:020054001895FD
:020058001895F9
:02005C001895F5
:020060001895F1
:100064001895FF1829E0001F2A9509F40895FF1C2C
:10007400F11A18F4F10E8894F6CF0894F4CF299A63
:1000840000FF2A9800FD2A9A01FF2B9801FD2B9A64
:1000940002FF2C9802FD2C9A03FF2D9803FD2D9A44
:1000A40029980895289A0F930295E9DF0F91E7DFC5
:1000B400BB27AAEF58D0089528980F930295DFDF45
:1000C4000F91DDDF02E052D008950591003011F068
:1000D400E9DFFBCF08950A3020F017E3010FE2DFD8
:1000E400089510E3010FDEDF08951F930F93029527
:1000F4000F70F1DF0F910F70EEDF1F910895EE2462
:100104001AE0AFDFE394FF920030D1F710E30F91D0
:10011400010FC8DFEA94D1F708950068CDDF089590
:100124000064CADF0895229A239A249A259A209A71
:10013400219A2898299804E619D013E003E09FDF58
:1001440005E014D01A95D1F702E099DF01E00ED052
:1001540008E2B2DF08E0B0DF01E0AEDF06E0ACDFCA
:100164000CE0AADF08951197F1F708950F93B3E017
:10017400A8EEF9DFB3E0A8EEF6DF0A95C1F70F9118
:1001840008955998519AB3E0ACEAEDDF5198B0E084
:10019400ACE8E9DF6894499BE894B1E0A0EEE3DFC2
:1001A400089518F4B0E0A2E002C0B0E0A0EF519AC4
:1001B400DADF5198B0E0A8E7D6DF08951F9310E086
:1001C4000795EFDF13951830D9F71F910895B0E024
:1001D400A2E0519AC8DF5198B0E0AAE0C4DFE894E5
:1001E40049996894B0E0A4E6BEDF08940EF08894C0
:1001F40008951F9310E0EBDF079513951830D9F796
:100204001F910895C8E0D1E0BCDFE6F30CECD6DF23
:100214000EEBD4DFEEDF0993ECDF09930895B1DF31
:100224008EF30CECCBDF04E4C9DF0CEB9FDF1895F5
:100234000F931F93C8E0D1E0A991B991A695A69513
:100244000A2F23E02A2309E1209F9001A695A69571
:100254000FE0B023B295AB2B1F910F9108950F932C
:100264001F932F930F9318E02091100102270795F5
:100274000091100110F428E1022707950093100162
:100284000F9106950F931A9579F70F912F911F915E
:100294000F9108950F9300E0009310010F910895BA
:1002A4000091100108954C6563747572652074653E
:1002B4006D7000002E0000000FEF0DBF34DF01E071
:1002C4002CDFEAEAF2E001DF01E427DF5ADFF6F38C
:1002D4000CEC74DF0EE472DF002770DF6FDF0FE3D6
:1002E4006DDF01E41ADF4DDFE6F399DF8BDFA0DF7A
:1002F4000000000000000F930A2F08D0F6DE022F42
:1003040005D0F3DE0C947301B1F7EBCF5F9355275F
:100314000A5010F0505FFCCF065F050F5F910895FF
:00000001FF
