:020000020000FC
:1000000017C118951895189518951895189518955D
:100010001895189518951895189518951895189578
:10002000189518951895FF1829E0001F2A9509F4CE
:100030000895FF1CF11A18F4F10E8894F6CF089475
:10004000F4CFC69A00FFC09800FDC09A01FFC19886
:1000500001FDC19A02FFC29802FDC29A03FFC39834
:1000600003FDC39AC6980895C49A0F930295E9DFD9
:100070000F91E7DFBB27AAEF58D00895C4980F93DC
:100080000295DFDF0F91DDDF02E052D00895059188
:10009000003011F0E9DFFBCF08950A3020F017E3BC
:1000A000010FE2DF089510E3010FDEDF08951F93D3
:1000B0000F9302950F70F1DF0F910F70EEDF1F911C
:1000C0000895EE241AE0AFDFE394FF920030D1F7F9
:1000D00010E30F91010FC8DFEA94D1F7089500688B
:1000E000CDDF08950064CADF0895B89AB99ABA9A24
:1000F000BB9ABC9ABE9AC498C69804E619D013E07D
:1001000003E09FDF05E014D01A95D1F702E099DFF4
:1001100001E00ED008E2B2DF08E0B0DF01E0AEDFC0
:1001200006E0ACDF0CE0AADF08951197F1F708951F
:100130000F93B3E0A8EEF9DFB3E0A8EEF6DF0A957F
:10014000C1F70F91089596988E9AB3E0ACEAEDDF6F
:100150008E98B0E0ACE8E9DF6894869BE894B1E063
:10016000A0EEE3DF089518F4B0E0A2E002C0B0E032
:10017000A0EF8E9ADADF8E98B0E0A8E7D6DF089578
:100180001F9310E00795EFDF13951830D9F71F91F3
:100190000895B0E0A2E08E9AC8DF8E98B0E0AAE0A1
:1001A000C4DFE89486996894B0E0A4E6BEDF0894C2
:1001B0000EF0889408951F9310E0EBDF07951395D8
:1001C0001830D9F71F9108950F931F932F930F9312
:1001D00018E020916800022707950091680010F44C
:1001E00028E102270795009368000F9106950F9369
:1001F0001A9579F70F912F911F910F9108950F93F1
:1002000000E0009368000F91089500916800089540
:1002100069427574746F6E20526561646572000086
:100220006176722D6D63752E6478702E706C00008F
:100230000FED0DBF5ADF01E052DFE0E1F2E027DF12
:1002400001E44DDFE0E2F2E022DF7DDFF6F303E3DD
:1002500097DFD5DFB0DF0030C1F3B6DFC0E6D0E016
:10026000099317E0A8DFB0DF09931A95D9F7CDDF1E
:10027000003059F700E433DFC0E6D0E018E0099120
:0802800016DF1A95E1F7E1CF4A
:00000001FF
